S017000068657861706F645F7665725F322E382E7372656381
S1130000F822002029010000210200002102000042
S113001000000000000000000000000000000000DC
S113002000000000000000000000000021020000A9
S11300300000000000000000210200002102000076
S11300402102000021020000210200002102000020
S11300502102000021020000210200002102000010
S113006021020000D93D000021020000210200000D
S113007021020000F53D0000113E0000C9430000CC
S113008021020000210200002102000019490000A1
S1130090354900002102000021020000252700004C
S11300A021020000210200002102000021020000C0
S11300B00000000010B5064C2378002B07D1054B37
S11300C0002B02D0044800E000BF0123237010BDC0
S11300D0C000002000000000CC4C0000084B10B50C
S11300E0002B03D00749084800E000BF0748036815
S11300F0002B00D110BD064B002BFBD09847F9E72D
S113010000000000C4000020CC4C0000CC4C0000D7
S11301100000000080B500AF024B9847C046BD46C2
S113012080BDC046C90F000080B582B000AF2F4B20
S11301307B602F4B3B607A683B689A420CD007E0A7
S11301403B681A1D3A607A68111D796012681A605A
S11301503A68284B9A42F3D3274B3B6004E03B6850
S11301601A1D3A6000221A603A68244B9A42F6D368
S1130170234B7B60234B7A68FF218A439A60224A8F
S113018090235B000221D150204AD37803218B4372
S1130190191C02230B43D3701C4AD3780C218B43C4
S11301A0191C08230B43D370194A937B30218B43CA
S11301B0191C20230B439373154A937B0C218B4307
S11301C0191C08230B439373114A937B03218B431C
S11301D0191C02230B4393730E4A536880210B436B
S11301E053600D4B98470D4B9847FEE7CC4C0000ED
S11301F000000020C0000020C0000020F402002005
S11302000000000000ED00E00070004100500041DB
S11302100048004100400041F54A0000414A000006
S113022080B500AFFEE780B582B000AF78600A0009
S1130230BB1C1A807B68BA1C12885A80C046BD4613
S113024002B080BD80B584B000AFF8607A600B2343
S1130250FB180A1C1A700B23FB181B78FA68DB01C5
S1130260D31808337A681A60C046BD4604B080BD0E
S113027080B584B000AFF8607A600B23FB180A1CC9
S11302801A700B23FB181B78FA68DB01D3180433AC
S11302907A681A60C046BD4604B080BD80B584B09B
S11302A000AFF8607A600B23FB180A1C1A700B234A
S11302B0FB181B78FA68DB01D31818337A681A60C4
S11302C0C046BD4604B080BD80B584B000AFF860C0
S11302D07A600B23FB180A1C1A700B23FB181B787B
S11302E0FA68DB01D31814337A681A60C046BD4635
S11302F004B080BD90B585B000AF78600C001000EC
S11303001900FB1C221C1A70BB1C021C1A707B1CDB
S11303100A1C1A70FB1C1978BB1C1A780F23FB18D3
S113032078683024C90141188A18121912781A7091
S11303300F23FB180F22BA1812780F218A431A7060
S11303407B1C1B780F221340D9B20F23FB180F22FA
S1130350BA1812780A431A70FB1C1A78BB1C1B7853
S113036079683020D2018A18D3181B180F22BA18C2
S113037012781A70C046BD4605B090BD90B585B0E0
S113038000AF78600C0010001900FB1C221C1A70CE
S1130390BB1C021C1A707B1C0A1C1A70FB1C1978EB
S11303A0BB1C1A780F23FB1878683024C901411844
S11303B08A18121912781A700F23FB180F22BA1810
S11303C012780F210A401A707B1C1B781B01D9B2CA
S11303D00F23FB180F22BA1812780A431A70FB1C59
S11303E01A78BB1C1B7879683020D2018A18D3187C
S11303F01B180F22BA1812781A70C046BD4605B0F1
S113040090BD90B585B000AF78600C001000190065
S1130410FB1C221C1A70BB1C021C1A707B1C0A1CBD
S11304201A70FB1C1978BB1C1A780F23FB18786808
S11304304024C90141188A18121912781A700F231E
S1130440FB180F22BA18127801218A431A707B1CF8
S113045019780F23FB180F22BA1812780A431A705E
S1130460FB1C1A78BB1C1B7879684020D2018A18BF
S1130470D3181B180F22BA1812781A70C046BD463A
S113048005B090BDB0B582B000AF7860080011002F
S1130490FB1C021C1A70BB1C0A1C1A70FB1C1A7869
S11304A0BB1C1B78F91C0878B91C09787C684025AA
S11304B0C0012018411849190978C9B20420014320
S11304C0CCB279684020D2018A18D3181B18221C98
S11304D01A70C046BD4602B0B0BDB0B582B000AF20
S11304E0786008001100FB1C021C1A70BB1C0A1C5B
S11304F01A70FB1C1A78BB1C1B78F91C0878B91CF1
S113050009787C684025C0012018411849190978E8
S1130510C9B204208143CCB279684020D2018A1840
S1130520D3181B18221C1A70C046BD4602B0B0BDB9
S113053080B584B000AFF8607A600B23FB180A1C06
S11305401A700B23FB181B78FA68DB01D3182833C5
S11305507A681A60C046BD4604B080BD80B582B0DA
S113056000AF39601100FB1D021C1A70BB1D0A1C70
S11305701A70BB1D1B78012B23D0022B3FD0002BFC
S11305805DD13A68FB1D1978C023DB051800314B97
S113059098473B681B041B0C8022D2051A43FB1DA1
S11305A01B782D4819002D4B98473B681B0CC02223
S11305B012061A43FB1D1B7827481900274B98473E
S11305C043E03A68FB1D1978C023DB051800214B72
S11305D098473B681B041B0C214A1A43FB1D1B78DC
S11305E01D4819001D4B98473B681B0C1D4A1A43B4
S11305F0FB1D1B7818481900184B984725E03A68EA
S1130600FB1D1978C023DB051800174B98473B687E
S11306101B041B0C8022D2051A43FB1D1B780E48B9
S113062019000E4B98473B681B0CC02212061A4354
S1130630FB1D1B7808481900084B984705E00B4B35
S11306404522190000200A4B9847C046BD4602B017
S113065080BDC04671020000004400413105000025
S113066000000240000002C0450200003C4B0000B4
S1130670F71C000080B582B000AF39601100FB1D8B
S1130680021C1A70BB1D0A1C1A70BB1D1B78002BA0
S113069008D03A68FB1D1978C023DB051800074B06
S11306A0984707E03A68FB1D1978C023DB0518005A
S11306B0034B9847C046BD4602B080BD9D02000072
S11306C0C902000090B583B000AF04000800110017
S11306D0FB1D221C1A70BB1D021C1A707B1D0A1CF8
S11306E01A707B1D1B78012B0CD0022B29D0002BF8
S11306F046D1BB1D1A78FB1D1B7827481900274BD0
S1130700984744E0BB1D1B7801229A40FB1D1978D1
S1130710C023DB051800224B9847BB1D1A78FB1D2C
S11307201B781D4819001F4B9847BB1D1B780122DD
S11307309A40FB1D1978C023DB0518001A4B984713
S113074025E0BB1D1B7801229A40FB1D1978C023AC
S1130750DB051800124B9847BB1D1A78FB1D1B784C
S11307600D4819000F4B9847BB1D1B7801229A4076
S1130770FB1D1978C023DB0518000C4B984706E0D5
S11307800B4B8822190000200A4B9847C046C046EC
S1130790BD4603B090BDC04600440041DB040000E8
S11307A071020000850400009D020000C9020000DF
S11307B03C4B0000F71C000090B585B000AF78609A
S11307C039607B685A090F23FB181A707B68DAB208
S11307D00E23FB181F210A401A703B6801330AD10B
S11307E00E23FB181A780F23FB1819781B480023D3
S11307F01B4CA0472EE00E23FB181A780F23FB187E
S1130800197816480123164CA0470E23FB181B78B1
S1130810012213400FD00E23FB181B785B08DAB2B9
S11308203B68D8B20F23FB1819780C4C0300200046
S11308300C4CA0470EE00E23FB181B785B08DAB2C1
S11308403B68D8B20F23FB181978044C030020002E
S1130850054CA047C046BD4605B090BD00440041CC
S1130860030400007D030000F502000080B582B09F
S113087000AF0200FB1D1A70BB1D0A1C1A70FB1D81
S11308801B785B09D8B2FB1D1B781F221340D9B219
S1130890BB1D1B781A00034B9847C046BD4602B0E7
S11308A080BDC046C506000080B582B000AF786048
S11308B039603A687B6811001800034B9847C046BA
S11308C0BD4602B080BDC046B907000080B582B005
S11308D000AF0200FB1D1A70BB1D0A1C1A70FB1D21
S11308E01B785B09D8B2FB1D1B781F221340012221
S11308F09A401100BB1D1B781A00034B9847C04651
S1130900BD4602B080BDC0465D05000080B582B022
S113091000AF0200FB1D1A70BB1D0A1C1A70FB1DE0
S11309201B785B09D8B2FB1D1B781F2213400122E0
S11309309A401100BB1D1B781A00034B9847C04610
S1130940BD4602B080BDC0467506000080B500AF4C
S1130950024B9847C046BD4680BDC04615280000DE
S113096080B582B000AF0200FB1D1A70BB1D0A1CCB
S11309701A70FB1D1B789BB23F2213409AB2BB1D19
S11309801B789BB21B0299B2F0231B010B409BB254
S113099013439BB28022D20113439BB2044A190031
S11309A01000044B9847C046BD4602B080BDC04607
S11309B0000C00402702000080B582B000AF7860D0
S11309C07B68012B01D1002323E07B68022B01D13A
S11309D001231EE07B68032B01D1022319E07B680D
S11309E00E4A934201D1032313E07B680C4A9342DD
S11309F001D104230DE07B680A4A934201D1052307
S1130A0007E07B68084A934201D1062301E00D23E5
S1130A105B421800BD4602B080BDC04600200041C4
S1130A2000400041004800410050004180B582B0C0
S1130A3000AF78607A688223DB059A4201D10023F3
S1130A401FE07B68114A934201D1012319E07B68BE
S1130A500F4A934201D1022313E07B680D4A93426B
S1130A6001D103230DE07B680B4A934201D1042397
S1130A7007E07B68094A934201D1052301E00D2375
S1130A805B421800BD4602B080BDC0460020004154
S1130A900040004100440041004800410050004132
S1130AA080B584B000AF02003960FB1D1A703B684A
S1130AB09B0A3F221340FB60FB1D1B78012B1ED0B9
S1130AC002DC002B05D044E0022B22D0032B36D0CD
S1130AD03FE03B681800264B9847031E40DB3B6809
S1130AE01800234B98470300FB60224B214A5269AC
S1130AF00120F968884001000A435A6130E01D4B27
S1130B001C4A92690120F968884001000A439A61ED
S1130B1029E03B681800184B9847031E22DB3B680A
S1130B201800154B98470300FB60124B114AD26919
S1130B300120F968884001000A43DA6112E00D4B94
S1130B400C4A126A0120F968884001000A431A62BB
S1130B5009E00A4B9B2219000020094B984702E048
S1130B60C04600E0C046C046BD4604B080BDC04695
S1130B70B9090000000400402D0A0000584B000091
S1130B80F71C000090B585B004AF144B1900032086
S1130B90134B984700211E20124B9847124A0F49C5
S1130BA0124800230293124B019301230093002364
S1130BB0104CA047104A0D48102300210F4CA047A9
S1130BC0002104200E4B98470E4B190004200E4BB5
S1130BD09847C046BD4601B090BDC04600400042A3
S1130BE0A10A000061090000EC000020B801002007
S1130BF034020020D5100000DC000020ED110000BC
S1130C00CD08000001000400A908000080B500AF71
S1130C10054B19000320054B984700211420044B71
S1130C209847C046BD4680BD00080042A10A0000A6
S1130C306109000080B500AF064B19000520064B82
S1130C409847064B19000620034B9847C046BD46FB
S1130C5080BDC04603000500A9080000030006008B
S1130C6090B583B002AF084B9847084A0849094831
S1130C70002300931023084CA047084B9847C04614
S1130C80BD4601B090BDC0460D0C0000F000002030
S1130C9000080042E4010020AD190000350C0000FA
S1130CA080B500AF00210820094B9847094B190073
S1130CB00820094B984700210920054B9847074B0A
S1130CC019000920044B9847C046BD4680BDC04664
S1130CD06D08000003000800A908000003000900D3
S1130CE080B500AF074B19000320074B984700213C
S1130CF01620064B984703211320044B9847C046FF
S1130D00BD4680BD00100042A10A00006109000038
S1130D1080B500AF064B9847064A074B11001800F0
S1130D20064B9847064B9847C046BD4680BDC04613
S1130D30E10C000000100042B80200207115000010
S1130D40A10C000080B500AF054B19000320054B32
S1130D50984700211820044B9847C046BD4680BDE3
S1130D6000180042A10A00006109000080B500AF2C
S1130D70064B19002D20064B9847064B19002E20D0
S1130D80034B9847C046BD4680BDC04602002D00B7
S1130D90A908000002002E0090B583B002AF084BF2
S1130DA09847084A08490948002300931023084C2F
S1130DB0A047084B9847C046BD4601B090BDC04609
S1130DC0450D0000000100200018004268010020C9
S1130DD0AD1900006D0D000080B500AF054B190082
S1130DE00320054B984700211920044B9847C0461F
S1130DF0BD4680BD001C0042A10A0000610900003C
S1130E0080B500AF064B19003E20064B9847064BB1
S1130E1019003F20034B9847C046BD4680BDC046DD
S1130E2003003E00A908000003003F0090B583B012
S1130E3002AF084B9847084A084909480023009321
S1130E401023084CA047084B9847C046BD4601B044
S1130E5090BDC046D90D000010010020001C0042C6
S1130E6068020020AD190000010E000080B500AF3B
S1130E70034B19002820034B9847C046BD4680BD4C
S1130E8004002800A908000080B500AF054B190034
S1130E900320054B984700211C20044B9847C0466B
S1130EA0BD4680BD00300042A10A00006109000077
S1130EB080B500AF074B9847074B9847074B9847B7
S1130EC002000749074B1800074B9847C046BD4628
S1130ED080BDC046890E00006D0E000099480000D8
S1130EE0003000424C020020D916000080B500AF4B
S1130EF0034B19002A20034B9847C046BD4680BDCA
S1130F0004002A00A908000080B500AF054B1900B1
S1130F100320054B984700211C20044B9847C046EA
S1130F20BD4680BD00340042A10A000061090000F2
S1130F3080B500AF074B9847074B9847074B984736
S1130F4002000749074B1800074B9847C046BD46A7
S1130F5080BDC046090F0000ED0E00009948000056
S1130F60003400424C010020D916000080B500AFC7
S1130F70054B19000320054B984700211A20044B08
S1130F809847C046BD4680BD00200042A10A00002B
S1130F906109000080B500AF064B9847064B98479F
S1130FA002000649064B1800064B9847C046BD464A
S1130FB080BDC0466D0F0000814300000020004248
S1130FC0D8020020C117000080B500AF344B984709
S1130FD000210220334B984702210220324B9847CC
S1130FE001235B4219000220304B984700210C205A
S1130FF02C4B984702210C202B4B984701235B4232
S113100019000C20294B984700210D20254B9847A7
S113101002210D20244B984701235B4219000D2027
S1131020224B984701210F201F4B984700210F2086
S11310301F4B984701235B4219000F201B4B984715
S113104000212F20174B984702212F20164B984739
S113105001235B4219002F20144B984701213120B2
S1131060104B9847022131200F4B984701235B42D4
S1131070190031200D4B98470E4B98470E4B98475B
S11310800E4B98470E4B98470E4B98470E4B98477C
S11310900E4B98470E4B9847C046BD4680BDC04690
S11310A04D0900000D090000CD080000A90800004A
S11310B06D080000850B0000610C0000110D00009C
S11310C0990D00002D0E0000B10E0000310F00003C
S11310D0950F000080B588B000AFF860B9607A6001
S11310E01A00FB1C1A70FB68002B0FD0BB68002B86
S11310F00CD07B68002B09D02823FB181B78002B0D
S113110004D0FB6A002B01D0012300E000231A1C49
S113111001231340DBB22F493F2218002E4B98477E
S11311202823FB181B78FA1C12780132D80FD11728
S11311309A4248410300DBB2264940221800264B5C
S11311409847FB68BB611F23FB1800221A700DE04F
S11311501F23FB181B787A68D318FF221A701F23E9
S1131160FB181A781F23FB1801321A701F23FA1870
S1131170FB1C12781B789A42EAD9FB687A681A62D7
S1131180FB68FA1C242112785A54FB682822BA18E6
S1131190252112785A54FB68FA6A9A62BA68BB69C4
S11311A0110018000D4B984703007B617B69002BED
S11311B001D07B6909E0BB69094A9A60BB69094AA5
S11311C01A60BB69084A5A6000231800BD4608B07B
S11311D080BDC046704B0000F71C00007126000063
S11311E045130000FD1300002D14000080B586B0E7
S11311F000AFF86008007A6019000B23FB18021C8A
S11312001A700823FB180A1C1A801623FB180022E4
S11312101A70FB68002B09D07B68002B06D00823CA
S1131220FB181B88002B01D0012300E000231A1CAB
S113123001231340DBB24049662218003F4B984714
S1131240FB682422995C0B23FB181A780023914233
S11312505B41DBB2384967221800384B9847FB687A
S11312601A6A0B23FB181B78D3181B78FF2B02D0A8
S11312700D235B425CE01723FB1800221A7016E072
S1131280FB681A6A1723FB181B78D3181B78FF2BEB
S113129006D01623FB181A781623FB1801321A708D
S11312A01723FB181A781723FB1801321A70FB68EE
S11312B024229B5C1722BA1812789A42E0D9FB6860
S11312C025229B5C1622BA1812789A4202D91C2352
S11312D05B422DE0FB68996A1623FB181A78130009
S11312E05B009B18DB00CB18181D0823FB181A8819
S11312F07B681900124B9847031E02D00D235B42F2
S113130016E0FB681A6A0B23FB181B78D318162205
S1131310BA1812781A70FB68996A1623FB181A789F
S113132013005B009B18DB00CB1800229A82002379
S11313301800BD4606B080BD704B0000F71C0000CD
S1131340011E000080B586B000AF7860080011006F
S1131350FB1C021C1A703B000A1C1A807B687B6110
S11313607B691A6AFB1C1B78D2181323FB181278AA
S11313701A707B69996A1323FB181A7813005B00AF
S11313809B18DB00CB18FB60FB681A1D3B001B8815
S1131390DBB219001000174B98477B691800164BF5
S11313A098470300012B10D9FB681A1D3B001B88CA
S11313B01B0A9BB2DBB2190010000E4B9847FB6866
S11313C09B8A01339AB2FB689A82FB689B8A013339
S11313D09AB2FB689A82FB681B68002B06D0FB68F4
S11313E01B68FA1C11787A6910009847C046BD46FC
S11313F006B080BDE91E0000F926000080B584B067
S113140000AF78600A00FB1C1A707B68FB60FB6805
S11314109B69002B06D0FB689B69FA1C1178FA685B
S113142010009847C046BD4604B080BD80B584B066
S113143000AF78600A00FB1C1A707B68FB60FB68D5
S1131440DB69002B06D0FB68DB69FA1C1178FA68AB
S113145010009847C046BD4604B080BD80B584B036
S113146000AF7860EFF31083FB60FA687B681A6062
S113147072B6BFF35F8FC046BD4604B080BD80B571
S113148084B000AF7860BFF35F8F7B681B68FB603C
S1131490FB6883F31088C046BD4604B080BD0000DD
S11314A080B58AB000AFF860B960BB1D1A80FB68D4
S11314B0143B7B627B6A9A8B1423FB181A80BB1D36
S11314C01A881423FB185A601423FB180C4A5A80F8
S11314D01423FB18BA689A607B6A1422BA181100A4
S11314E01800084B984703003B623B6A002B01D06D
S11314F03B6A01E0BB1D1B881800BD460AB080BDD5
S11315000180FFFF293B000080B58AB000AFF8607E
S1131510B960BB1D1A80FB68143B7B627B6A9A8BA3
S11315201423FB181A80BB1D1A881423FB185A6055
S11315301423FB180C4A5A801423FB18BA689A60C7
S11315407B6A1422BA1811001800084B984703004C
S11315503B623B6A002B01D03B6A01E0BB1D1B8848
S11315601800BD460AB080BD0080FFFF293B000083
S113157080B584B000AF786039607B685A1E9341AF
S1131580DBB20E495E2218000D4B98477B683A681F
S1131590110018000B4B98470300FB60FB68002BFD
S11315A001D0FB6806E07B68074A9A617B68074ABA
S11315B05A6100231800BD4604B080BD8C4B000066
S11315C0F71C000045390000A114000009150000B3
S11315D080B584B000AFF8607A600A23FB180A1C57
S11315E01A800A23FB181B889B059B0D1AB27B6883
S11315F019B28023DB000B401BB213431BB29AB217
S1131600FB689A83FB689B8B1800BD4604B080BDC1
S113161080B582B000AF786039607B6814331A00FB
S11316203B681A6000231800BD4602B080BD00006C
S113163080B584B000AFF860B960BB1D1A80FB6848
S1131640002B04D0BB68002B01D0012300E0002351
S11316501A1C01231340DBB2084934221800084B3A
S11316609847FB681B68BA1D1288B968F8689847E0
S113167003001800BD4604B080BDC046A84B00005E
S1131680F71C000080B584B000AFF860B960BB1DE2
S11316901A80FB68002B04D0BB68002B01D0012307
S11316A000E000231A1C01231340DBB208493D2249
S11316B01800084B9847FB685B68BA1D1288B96824
S11316C0F868984703001800BD4604B080BDC046C2
S11316D0A84B0000F71C000080B584B000AFF86090
S11316E0B9607A60FB68002B04D0BB68002B01D082
S11316F0012300E000231A1C01231340DBB20B4931
S1131700332218000A4B9847FB68BA681100180086
S1131710084B9847FB68084A1A60FB68074A5A60F6
S113172000231800BD4604B080BDC046BC4B000079
S1131730F71C000071460000411700006717000005
S113174080B584B000AF78607B68FB60FB685B6940
S1131750002B04D0FB685B69FA6810009847C04608
S1131760BD4604B080BD80B584B000AF78607B68AE
S1131770FB60FB689B69002B04D0FB689B69FA68DB
S113178010009847C046BD4604B080BD80B582B005
S113179000AF78607B681B681800BD4602B080BD4E
S11317A080B582B000AF78607B68002B02D07B6884
S11317B01B6800E000231800BD4602B080BD000095
S11317C080B584B000AFF860B9607A60FB68002B24
S11317D004D0BB68002B01D0012300E000231A1CB5
S11317E001231340DBB20B493B2218000A4B9847F4
S11317F0FB68BA6811001800084B9847FB68002280
S11318001A61FB68064A1A6000231800BD4604B03A
S113181080BDC046D44B0000F71C000049420000C4
S1131820E918000080B588B000AFF860B9607A604C
S11318300023BB61FB681800274B984703003B61FA
S11318403B69002B06D1BA68FB6811001800234BD2
S113185098473DE03B69FB6124E0FB695A687B687B
S11318609A4208D8FB699A68FB6959687B68CB1A65
S1131870D3187B6109E0FB699A68FB695B68D2183D
S11318807B685B42D31801337B61BB689A687B69D0
S11318909A420BD9FB69BB61FB691800104B98474E
S11318A00300FB61FB69002BD7D100E0C046FA6955
S11318B03B699A4206D1BA68FB6811001800074BCD
S11318C0984705E0BA68BB6911001800054B9847B2
S11318D0BD4608B080BDC0468D170000591D0000EC
S11318E0A1170000B11D000080B586B000AF78607C
S11318F07B683B613B6914331800294B984703000C
S11319007B613B691B695A1C3B691A613B691B6912
S1131910FB603B691B7EDBB21A000123134006D136
S11319203B691B7EDBB21A000223134029D03B69BA
S11319301B7EDBB202221343DAB23B691A762BE038
S11319407B69BB603B6914331800164B9847BB682E
S11319501B7C012B09D1BB68FA685A603B691433BC
S1131960FA68B9681800104B98473B69143318009B
S11319700B4B984703007B61BB68DB68BA681000B7
S113198098477B69002B07D07B695B68FA68D21A99
S11319907B699B689A42D3D2BD4606B080BDC046DF
S11319A08D170000D11D00002518000080B586B0F9
S11319B000AFF860B9607A601A00BB1C1A80FB683B
S11319C0002B0BD0BB68002B08D07B68002B05D004
S11319D0BB1C1B88002B01D0012300E000231A1C30
S11319E001231340DBB21C493A2218001B4B9847D1
S11319F0FB6834331800BB1C1A887B681900184B29
S1131A009847031E02D00D235B4220E0FB68083395
S1131A10BA6811001800134B984703007B617B6977
S1131A20002B01D07B6912E0FB680F4A5A60FB6807
S1131A300E4A1A60FB680E4A9A60FB680D4ADA6027
S1131A40FB680D4A1A61FB680C4A5A6100231800AE
S1131A50BD4606B080BDC046EC4B0000F71C00003C
S1131A60011E0000F1300000191B0000811A000063
S1131A70E51B0000851C0000551C0000C91C00006B
S1131A8080B586B000AFF860B960BB1D1A80FB68F2
S1131A907B617B69002B08D0BB68002B05D0BB1D84
S1131AA01B88002B01D0012300E000231A1C012312
S1131AB01340D8B23C23FF331A00144B1900144BC3
S1131AC098477B6944229A5A7B694C215B5A9A4213
S1131AD002D01C235B4215E07B69BA689A647B6977
S1131AE0BA1D4C2112885A527B6944220021995212
S1131AF07B6901221A637B6908331800054B9847F8
S1131B00BB1D1B881800BD4606B080BDEC4B000011
S1131B10F71C0000C131000080B588B000AFF86048
S1131B20B960BB1D1A801E23FB1800221A80FB68B3
S1131B30BB61BB69002B08D0BB68002B05D0BB1D63
S1131B401B88002B01D0012300E000231A1C012371
S1131B501340D8B2AC235A001C4B19001C4B9847B5
S1131B601023FB1818001B4B9847BB69343318002B
S1131B70194B984703007B611023FB181800174B7F
S1131B8098470FE0BB69343318001E23FB181B88E9
S1131B901E22BA18591C11801A00BB689B18190020
S1131BA00F4B98471E23FB181A887B699A4206D26A
S1131BB01E23FA18BB1D12881B889A42E2D31E23E7
S1131BC0FB181B881800BD4608B080BDEC4B000014
S1131BD0F71C00005D1400005D1F00007F1400006E
S1131BE0751E0000B0B584B000AF78607B68083B18
S1131BF0FB60FB6844229A5AFB684C215B5A9A4268
S1131C0018D0FB6808331C00FB689A6CFB684421FD
S1131C105B5A591C8DB2F96844200D52D3181B78B5
S1131C2019002000084B9847FB6808331800074B3D
S1131C30984704E0FB6808331800054B9847C046F2
S1131C40BD4604B0B0BDC04695310000C1310000AE
S1131C50E131000080B584B000AF78607B68083B58
S1131C60FB60FB6800221A63FB685B6A002B04D0EC
S1131C70FB685B6AFA6810009847C046BD4604B02A
S1131C8080BD000080B584B000AF78600A00FB1C02
S1131C901A707B68083BFB60FB6834331A00FB1C3A
S1131CA01B7819001000074B9847FB689B6A002BB0
S1131CB004D0FB689B6AFA6810009847C046BD468A
S1131CC004B080BDE91E000080B584B000AF786028
S1131CD07B68083BFB60FB6800221A63FB68DB6AD5
S1131CE0002B04D0FB68DB6AFA6810009847C046F2
S1131CF0BD4604B080BD80B584B000AFB9607A60E1
S1131D000F23FB18021C1A700F23FB181B780122E7
S1131D105340DBB2002B00D000BEC046BD4604B029
S1131D2080BD80B584B000AF786039607B681B6883
S1131D30FB6008E0FA683B689A4201D1012306E09F
S1131D40FB681B68FB60FB68002BF3D100231800C1
S1131D50BD4604B080BD000080B582B000AF78609D
S1131D6039603A687B68110018000E4B98470300ED
S1131D705A1E9341DBB201225340DBB21A1C0123E9
S1131D801340DBB2084939221800084B98477B6896
S1131D901A683B681A607B683A681A60C046BD4698
S1131DA002B080BD231D00000C4C0000F71C000095
S1131DB080B582B000AF786039607B681A683B6890
S1131DC01A607B683A681A60C046BD4602B080BD9E
S1131DD080B584B000AF78607B681B68002B09D0A5
S1131DE07B681B68FB607B681B681A687B681A60E9
S1131DF0FB6800E000231800BD4604B080BD00006D
S1131E0080B584B000AFF860B9607A60FB68002BDD
S1131E1007D0BB68002B04D07B68002B01D00123C2
S1131E2000E000231A1C01231340DBB20F492822CF
S1131E3018000F4B98477B68013B7A68134002D027
S1131E400D235B420EE07B685A1EFB685A60FB68F8
S1131E5000229A60FB689A68FB68DA60FB68BA68DB
S1131E601A6000231800BD4604B080BD2C4C00004D
S1131E70F71C000080B582B000AF786039607B68E1
S1131E80002B04D03B68002B01D0012300E0002389
S1131E901A1C01231340DBB2114940221800114BD4
S1131EA098477B68DA687B689B689A4211D07B68A4
S1131EB01A687B6899687B685B680B40D3181A784A
S1131EC03B681A707B689B685A1C7B689A60002385
S1131ED001E00A235B421800BD4602B080BDC04643
S1131EE02C4C0000F71C000080B582B000AF786075
S1131EF00A00FB1C1A707B685A1E9341DBB2154919
S1131F0051221800144B98477B681A687B68D9687B
S1131F107B685B680B40D318FA1C12781A707B68D4
S1131F20DA687B689B68D21A7B685B689A4206D938
S1131F307B68DA687B685B68D21A7B689A607B6826
S1131F40DB685A1C7B68DA6000231800BD4602B0C7
S1131F5080BDC0462C4C0000F71C000080B582B048
S1131F6000AF78607B685A1E9341DBB20649672252
S1131F701800064B98477B68DA687B689B68D31A1D
S1131F801800BD4602B080BD2C4C0000F71C0000B8
S1131F9080B582B000AF0200FB1D1A70FB1D1B78D8
S1131FA07F2B09D8064BFA1D127811001F220A4014
S1131FB0012191400A001A60C046BD4602B080BDAE
S1131FC000E100E080B582B000AF0200FB1D1A7092
S1131FD0FB1D1B787F2B0ED80949FB1D1B781A00AB
S1131FE01F23134001229A40130080228B50BFF319
S1131FF04F8FBFF36F8FC046BD4602B080BDC04651
S113200000E100E080B582B000AF0200FB1D1A7051
S1132010FB1D1B787F2B0AD80749FB1D1B781A0070
S11320201F23134001229A40C0235B00CA50C046BC
S1132030BD4602B080BDC04600E100E080B582B07C
S113204000AF7860C0467B685B7E1B06DB0FDBB2AB
S1132050002BF8D1C046BD4602B080BD80B582B029
S113206000AF78607B6801221A76C046BD4602B094
S113207080BD80B582B000AF78607B6802221A769A
S1132080C046BD4602B080BD80B582B000AF786066
S11320907B6804221A76C046BD4602B080BD80B576
S11320A082B000AF78607B681B7EDBB21800BD464F
S11320B002B080BD80B582B000AF78607B68DB7D04
S11320C0DBB21800BD4602B080BD000080B582B00E
S11320D000AF78607B681800044B98477B685B8B83
S11320E09BB21800BD4602B080BDC0463D20000032
S11320F080B584B000AF78600A00FB1C1A700F230F
S1132100FB187A6812781A700F23FB180F22BA187A
S1132110F91C127809780A401A700F23FB181B78EF
S11321201800BD4604B080BD80B582B000AF7860B1
S11321300A00FB1C1A707B68FA1C12781A70C046DD
S1132140BD4602B080BD80B582B000AF78600A00A1
S1132150FB1C1A707B68FA1C12785A70C046BD4684
S113216002B080BD80B582B000AF78600A00FB1C6D
S11321701A707B68FA1C12789A70C046BD4602B089
S113218080BD80B582B000AF78600A00FB1C1A7075
S11321907B68FA1C1278DA70C046BD4602B080BD76
S11321A080B584B000AF78607B6818000B4B98470B
S11321B00E23FB187A6892881A800E23FB181B885A
S11321C01B099AB20E23FB1803210A401A800E231E
S11321D0FB181B881800BD4604B080BD3D200000DC
S11321E080B582B000AF78600A00BB1C1A807B689F
S11321F0BA1C12889A807B681800034B9847C04623
S1132200BD4602B080BDC0463D20000080B582B00E
S113221000AF78600A00FB1C1A707B68FA1C127805
S11322201A727B681800034B9847C046BD4602B03B
S113223080BDC0463D20000080B582B000AF78600C
S113224039607B683A681A617B681800024B9847CA
S1132250C046BD4602B080BD3D20000080B582B0BE
S113226000AF78600A00FB1C1A707B68FA1C1278B5
S11322701A75C046BD4602B080BD000080B582B06C
S113228000AF78600A00BB1C1A807B68BA1C1288F5
S11322909A837B681800034B9847C046BD4602B03A
S11322A080BDC0463D20000080B582B000AF78609C
S11322B00A00BB1C1A807B68BA1C12881A847B68CB
S11322C01800034B9847C046BD4602B080BDC046C7
S11322D03D20000080B582B000AF78600A00BB1CCE
S11322E01A807B68BA1C12889A84C046BD4602B024
S11322F080BD80B582B000AF78600A00BB1C1A8034
S11323007B68BA1C1288DA84C046BD4602B080BD20
S113231080B582B000AF78600A00BB1C1A807B686D
S1132320BA1C12881A85C046BD4602B080BD80B56D
S113233082B000AF78600A00FB1C1A707B68FA1C3C
S11323402A2112785A54C046BD4602B080BD80B5D9
S113235082B000AF786000231800BD4602B080BD93
S113236090B585B000AF78607B680E22BC18180069
S1132370184B9847030023700F23FB1800221A7090
S113238018E00F23FB181A7813491300DB009B1A7B
S11323909B005B5C0E22BA1812789A4203D10F2379
S11323A0FB181B7812E00F23FB181A780F23FB1875
S11323B001321A700F23FB181B78002BE1D0074B56
S11323C07F2219000020064B984700231800BD46C1
S11323D005B090BD4F23000000000020504C0000C9
S11323E0F71C0000F0B585B000AF78600A00FB1C54
S11323F01A707B68884A944663445A425341DBB25C
S1132400864994221800864B9847864B1B68DB0844
S11324109BB21B029AB2E023DB00134099B2824BB9
S11324205C681B686201DD0E1543E60EABB2FF2249
S113243013409AB20E23FB180A431A807B681800D3
S11324407A4B98477B6802211800794B9847031E02
S113245008D07B6800211800764B98477B681800E9
S1132460724B98477B6801211800724B98477B6830
S113247018006E4B98470E23FB181A887B681100CE
S113248018006D4B9847FB1C1A786C491300DB004D
S11324909B1A9B00CB1802331A787B681100180032
S11324A0674B9847FB1C1A7864491300DB009B1A9E
S11324B09B00CB1803331A787B6811001800614B1A
S11324C09847FB1C1A785D491300DB009B1A9B009C
S11324D0CB1804331A787B68110018005A4B9847BC
S11324E0FB1C1A7855491300DB009B1A9B00CB1880
S11324F010331A787B6811001800544B9847FB1C62
S11325001A784E491300DB009B1A9B00CB18163334
S11325101A887B68110018004D4B9847FB1C1A78E9
S113252046491300DB009B1A9B00CB1818331A880A
S11325307B6811001800474B9847FB1C1A783F49E9
S11325401300DB009B1A9B00CB181A331A787B68A4
S113255011001800404B9847FB1C1A7837491300A8
S1132560DB009B1A9B00CB1806331A887B6811008A
S113257018003A4B9847FB1C1A7830491300DB00CB
S11325809B1A9B00CB180C331A687B681100180047
S1132590334B9847FB1C1A7828491300DB009B1A1D
S11325A09B00CB1808331A787B68110018002D4B58
S11325B09847FB1C1A7821491300DB009B1A9B00E7
S11325C0CB1812331A887B6811001800264B9847E1
S11325D0FB1C1A7819491300DB009B1A9B00CB18CB
S11325E014331A887B6811001800204B9847FB1C91
S11325F01A7812491300DB009B1A9B00CB18013395
S11326001A787B68110018000A4B984700231800B9
S1132610BD4605B0F0BDC04600C0FFBD504C000033
S1132620F71C000024608000206080003D20000032
S1132630F1200000292100001123000000000020E7
S11326404721000065210000832100005D22000075
S1132650D5220000F32200002F230000E121000016
S1132660392200000D2200007D220000A922000072
S113267080B584B000AF786039607B685A1E93419E
S1132680DBB21549D3221800144B98473B68180055
S1132690134B984703001A003B6811001800114BB4
S11326A098470300FB60FB68002B01D0FB680FE038
S11326B07B683A685A610C4B7A681A6017200B4B96
S11326C0984717200A4B984717200A4B984700232E
S11326D01800BD4604B080BD504C0000F71C00003B
S11326E061230000E523000020010020C51F000035
S11326F005200000911F000080B582B000AF786013
S11327007B685B691800064B98470300032B01D1D3
S1132710012300E002231800BD4602B080BDC0467C
S1132720A1210000B0B582B000AF2A4B1B685B69E1
S11327307B60FC1C7B681800274B984703002370C0
S11327407B681800254B984703001900FB1CFA1CF2
S113275012780A401A70FB1C1B780122134012D015
S11327607B6818001E4B98471A4B1B689C68194BD2
S11327701D687B6818001B4B984703001A00002152
S11327802800A04722E0FB1C1B78022213400CD037
S11327907B681800144B98470E4B1B685A680D4B06
S11327A01B6800211800904710E0FB1C1B780422D2
S11327B013400BD07B6818000C4B9847054B1B68E3
S11327C01A68044B1B68002118009047C046BD4698
S11327D002B0B0BD200100209F200000B520000001
S11327E05D200000CD20000073200000892000003F
S11327F080B582B000AF786039607B685A683B6806
S11328005B001E210B401A437B685A60C046BD46DC
S113281002B080BD80B500AF084B00211800084B02
S11328209847084B9847084B9847084B9847FF2010
S1132830074B9847C046BD4680BDC0460040004196
S1132840F1270000A9290000193F0000C53F00003E
S1132850B128000080B582B000AF7860C0467B68C4
S11328605B781B06DB0FDBB2002BF8D1C046BD46FC
S113287002B080BD80B582B000AF786039607B68FB
S11328803A685A607B681800024B9847C046BD46B8
S113289002B080BD5528000080B582B000AF7860DA
S11328A039607B683A689A60C046BD4602B080BD14
S11328B080B582B000AF78607B68012213400DD0F0
S11328C080235B00074A19001000074B98478323B5
S11328D05B02044A19001000044B9847C046BD46E9
S11328E002B080BD000C004099280000752800004B
S11328F080B582B000AF78600A00FB1C1A707B6858
S11329001B7ADAB2FB1C1B7807210B40DBB21343A2
S1132910DAB27B681A72C046BD4602B080BD80B58B
S113292082B000AF78600A00FB1C1A707B685B7A87
S1132930DAB2FB1C1B7807210B40DBB21343DAB27B
S11329407B685A72C046BD4602B080BD80B582B075
S113295000AF78600A00FB1C1A707B689B7ADAB2BD
S1132960FB1C1B7807210B40DBB21343DAB27B68F4
S11329709A72C046BD4602B080BD80B582B000AF39
S113298078600A00FB1C1A707B68DB7ADAB2FB1CE5
S11329901B7807210B40DBB21343DAB27B68DA728F
S11329A0C046BD4602B080BD80B500AF0B4B0021D0
S11329B018000B4B9847094B00211800094B984706
S11329C0064B00211800084B9847044B00211800BF
S11329D0064B9847C046BD4680BDC0460004004033
S11329E0F12800001F2900004D2900007B29000068
S11329F080B582B000AF0200FB1D1A70FB1D1B786E
S1132A007F2B09D8064BFA1D127811001F220A40A9
S1132A10012191400A001A60C046BD4602B080BD43
S1132A2000E100E080B582B000AF0200FB1D1A7027
S1132A30FB1D1B787F2B0ED80949FB1D1B781A0040
S1132A401F23134001229A40130080228B50BFF3AE
S1132A504F8FBFF36F8FC046BD4602B080BDC046E6
S1132A6000E100E080B582B000AF0200FB1D1A70E7
S1132A70FB1D1B787F2B0AD80749FB1D1B781A0006
S1132A801F23134001229A40C0235B00CA50C04652
S1132A90BD4602B080BDC04600E100E080B582B012
S1132AA000AF78603960C0467B68DB693A681340E0
S1132AB0FAD1C046BD4602B080BD80B582B000AF39
S1132AC0786039607B68DB693A6813405A1E934129
S1132AD0DBB21800BD4602B080BD80B582B000AF45
S1132AE078603960C0467B68DB693A681340FAD184
S1132AF0C046BD4602B080BD80B582B000AF7860EC
S1132B0039607B68DB693A6813405A1E9341DBB233
S1132B101800BD4602B080BD80B582B000AF7860B9
S1132B207B6801221A76C046BD4602B080BD80B5DE
S1132B3082B000AF78607B6802221A76C046BD4638
S1132B4002B080BD80B582B000AF78607B681B7E28
S1132B50DBB21800BD4602B080BD80B582B000AFC4
S1132B6078607B681B7EDBB21A00012313405A1E77
S1132B709341DBB21800BD4602B080BD80B582B07F
S1132B8000AF78607B681B7EDBB25B0801221340D8
S1132B905A1E9341DBB21800BD4602B080BD80B519
S1132BA082B000AF78607B681B7EDBB29B08012299
S1132BB013405A1E9341DBB21800BD4602B080BDDB
S1132BC080B582B000AF78607B681B7EDBB2DB0926
S1132BD0012213405A1E9341DBB21800BD4602B0D5
S1132BE080BD80B582B000AF78607B6880221A76A1
S1132BF0C046BD4602B080BD80B582B000AF7860EB
S1132C007B6801229A75C046BD4602B080BD80B57E
S1132C1082B000AF78607B689B7DDBB21A00012331
S1132C2013405A1E9341DBB21800BD4602B080BD6A
S1132C3080B582B000AF78607B6801221A75C04607
S1132C40BD4602B080BD80B582B000AF78607B68BD
S1132C5002229A75C046BD4602B080BD80B582B0DE
S1132C6000AF78607B689B7DDBB25B080122134078
S1132C705A1E9341DBB21800BD4602B080BD80B538
S1132C8082B000AF78607B6802221A75C046BD46E8
S1132C9002B080BD80B582B000AF78607B681B68ED
S1132CA0022293431A007B681A607B680321180090
S1132CB0024B9847C046BD4602B080BD9D2A000025
S1132CC080B584B000AF78607B681B68FB60FB68EC
S1132CD0DB0E01221340FB60FB685A1E9341DBB2FA
S1132CE01800BD4604B080BD80B584B000AF7860E4
S1132CF039607B6803211800064B98477B681B6882
S1132D00FB60FB683A681340FB60FB681800BD4633
S1132D1004B080BD9D2A000080B582B000AF786009
S1132D2039607B683A681A607B6803211800034B9A
S1132D309847C046BD4602B080BDC0469D2A0000EB
S1132D4080B582B000AF78607B681B680222934331
S1132D501A007B681A607B6803211800024B9847AD
S1132D60C046BD4602B080BDDB2A000080B584B0F9
S1132D7000AF786039607B6803211800064B9847E0
S1132D807B681B68FB60FB683A681340FB60FB6868
S1132D901800BD4604B080BDDB2A000080B582B0B7
S1132DA000AF786039607B683A681A607B680321F9
S1132DB01800034B9847C046BD4602B080BDC046CC
S1132DC0DB2A000080B582B000AF78607B685B6866
S1132DD0802252001A437B685A607B6804211800E1
S1132DE0024B9847C046BD4602B080BD9D2A0000F4
S1132DF080B582B000AF78607B685B68064A1A4091
S1132E007B685A607B6804211800044B9847C046CD
S1132E10BD4602B080BDC046FFFEFFFF9D2A0000F4
S1132E2080B582B000AF78607B685B688022D20294
S1132E301A437B685A607B6804211800024B984748
S1132E40C046BD4602B080BD9D2A000080B582B058
S1132E5000AF78607B685B68064A1A407B685A60FA
S1132E607B6804211800044B9847C046BD4602B055
S1132E7080BDC046FFFFFBFF9D2A000080B582B0E5
S1132E8000AF786039607B685A683B681904C023D6
S1132E909B020B401A437B685A607B68042118002C
S1132EA0024B9847C046BD4602B080BD9D2A000033
S1132EB080B582B000AF786039607B683A685A6048
S1132EC07B6804211800034B9847C046BD4602B0F6
S1132ED080BDC0469D2A000080B582B000AF7860F6
S1132EE039607B683A685A607B6807211800034B95
S1132EF09847C046BD4602B080BDC046DB2A0000EC
S1132F0080B582B000AF786039607B683A68DA6077
S1132F10C046BD4602B080BD80B582B000AF7860C7
S1132F200A00BB1C1A807B68BA1C12889A81C046AE
S1132F30BD4602B080BD80B582B000AF78600A00A3
S1132F40FB1C1A707B68FA1C12789A73C046BD4643
S1132F5002B080BD80B584B000AF78600A00FB1C6D
S1132F601A707B685B6AFB60FB680B4A1340FB606A
S1132F70FB1C1B789B031A00FB681343FB607B68F4
S1132F80FA685A627B6804211800044B9847C046CB
S1132F90BD4604B080BDC046FFBFFFFF9D2A0000B0
S1132FA080B582B000AF786039607B683A685A6255
S1132FB07B6804211800034B9847C046BD4602B005
S1132FC080BDC0469D2A000080B582B000AF786005
S1132FD07B6804211800044B98477B685B6A1800DF
S1132FE0BD4602B080BDC0469D2A000080B582B0B7
S1132FF000AF78600A00FB1C1A707B68FA1C282159
S113300012785A547B6804211800034B9847C04631
S1133010BD4602B080BDC0469D2A000080B582B086
S113302000AF78607B6804211800054B98477B68E3
S113303028229B5CDBB21800BD4602B080BDC046AE
S11330409D2A000080B582B000AF78600A00BB1CE6
S11330501A807B68BA1C12881A85C046BD4602B025
S113306080BD80B582B000AF78607B681B8D9BB259
S11330701800BD4602B080BD80B582B000AF786054
S11330800A00FB1C1A707B68FA1C302112785A540F
S1133090C046BD4602B080BD80B582B000AF786046
S11330A00A00BB1C1A807B68BA1C12885A83C0466B
S11330B0BD4602B080BD80B582B000AF78607B6849
S11330C05B8B9BB21800BD4602B080BD80B582B058
S11330D000AF78607B6804211800044B98477B6834
S11330E05B8B9BB21800BD4602B080BD9D2A0000D8
S11330F080B584B000AF786039607B685A1E934114
S1133100DBB21C49C82218001B4B98473B681800C7
S11331101A4B98470300FB60FB68002B01D0FB6847
S113312024E07B683A689A617A683B681100180069
S1133130134B98473B681800124B984703005BB247
S11331401800114B98473B6818000E4B9847030032
S11331505BB218000D4B98473B681800094B984721
S113316003005BB218000A4B984700231800BD46C1
S113317004B080BD684C0000F71C0000153400004A
S1133180C133000021390000252A0000652A00000F
S1133190F129000080B582B000AF78600A00FB1C02
S11331A01A707B689A69FB1C1B789BB2190010008B
S11331B0024B9847C046BD4602B080BD4530000072
S11331C080B582B000AF78607B689B691800034BC0
S11331D09847C046BD4602B080BDC046F92B0000EA
S11331E080B582B000AF78607B689B691800034BA0
S11331F09847C046BD4602B080BDC046472C00007B
S113320080B582B000AF78607B68044A944663441A
S11332109B0ADBB21800BD4602B080BD00F8FFBDBA
S113322090B585B000AF78607B689B69FB60FB68F4
S11332301800354B9847031E0FD0FB681800334B1A
S11332409847031E09D0FB681800314B98477B68E8
S11332501B687A681000984753E0FB6818002D4BF0
S11332609847031E0FD0FB6818002B4B9847031E8A
S113327009D0FB681800294B98477B689B687A68DB
S1133280100098473DE0FB681800254B9847031E43
S11332901BD0FB681800234B984703001A00372300
S11332A0134005D0FB683F2118001F4B984728E0C6
S11332B07B685C68FB6818001C4B98470300DAB213
S11332C07B6811001800A0471BE0FB681800184B2E
S11332D09847031E15D0FB681800164B98477B6867
S11332E0DB687A6810009847FB6818000D4B984714
S11332F00300BB60BB689AB2FB68110018000A4B5C
S11333009847BD4605B090BD5B2B00000F2C000014
S1133310312C00007D2B00005D2C00007F2C000070
S11333209F2B0000B730000099300000633000008C
S1133330C12B0000E32B000090B585B000AF78608E
S11333400E23FC187B681800184B98470300237061
S11333500F23FB1800221A7018E00F23FB181A78A9
S1133360134913009B009B189B005B5C0E22BA1848
S113337012789A4203D10F23FB181B7812E00F2313
S1133380FB181A780F23FB1801321A700F23FB184D
S11333901B78022BE1D9074A074B19000020074B81
S11333A0984700231800BD4605B090BD01320000C7
S11333B01C00002069020000684C0000F71C00009B
S11333C080B582B000AF786039607B680B4A934265
S11333D002D10B4B3A681A607B680A4A934202D1C5
S11333E0094B3A681A607B68084A934202D1084B39
S11333F03A681A60C046BD4602B080BD000800426B
S1133400240100200018004228010020001C004272
S11334102C01002090B585B000AF78600F23FC1814
S11334207B6818006F4B9847030023707B68012169
S113343018006D4B984703001A0001235340DBB278
S1133440002B25D00F23FB181A78684913009B0022
S11334509B189B00CB1804331B681C221340BB60D1
S11334607B6802211800624B9847031E08D07B68D2
S11334701800604B98477B68022118005E4B984700
S1133480BB6801221A437B68110018005B4B984704
S11334907B6801211800584B98470F23FB181A78B2
S11334A0524913009B009B189B00CB1804331A68E5
S11334B07B6811001800514B98470F23FB181A78AA
S11334C04A4913009B009B189B00CB1808331A68C9
S11334D07B68110018004A4B98470F23FB181A7891
S11334E0424913009B009B189B00CB1804331A68B5
S11334F080239B0113400ED10F23FB181A783B49FC
S113350013009B009B189B00CB1804331A68C0233C
S1133510DB01134030D00F23FB181A783349130012
S11335209B009B189B00CB180C331B88DB04DB0C23
S113353099B27A689389C904C80C5B0B5B03191CA4
S1133540031C0B4393810F23FB181A78274913009C
S11335509B009B189B00CB180E331B781A1C072367
S11335601340D9B27A6893894803DB04DB0C191C35
S1133570031C0B4393810FE00F23FB181A781B499C
S113358013009B009B189B00CB180C331A887B6894
S1133590110018001B4B98470F23FB181A78134986
S11335A013009B009B189B00CB180F331A787B6881
S11335B011001800144B98470F23FB181A780B4975
S11335C013009B009B189B00CB1810331A787B6860
S11335D0110018000D4B984700231800BD4605B094
S11335E090BDC04639330000F92A00001C000020B9
S11335F06D2D0000412D0000DB2A00009D2D0000F0
S1133600D92E0000192F0000372F00007930000058
S113361090B585B000AF78600E23FC187B68180065
S1133620194B9847030023700F23FB1800221A70CC
S113363019E00F23FB181A78144913005B009B1838
S1133640DB005B5C0E22BA1812789A4204D10F2375
S1133650FB181B785BB213E00F23FB181A780F23B7
S1133660FB1801321A700F23FB181B78002BE0D0D3
S1133670074A084B19000020074B984701235B4277
S11336801800BD4605B090BD01320000580000206E
S1133690D3030000684C0000F71C000080B582B022
S11336A000AF78607B6803211800034B9847C0463D
S11336B0BD4602B080BDC0467D2E000090B587B0E7
S11336C000AFF860B9607A60FB681800874B9847D0
S11336D003007B611223FC18FB681800844B984795
S11336E003002380BB680122134000D1A3E012230E
S11336F0FB181B880222134020D0FB6818007D4B66
S113370098477B685B889BB28022520113439AB22C
S11337107B685A807B685B889BB2774A13409AB275
S11337207B685A801223FB181B880122134002D0A5
S113373005235B42D6E004235B42D3E01223FB184B
S11337401B880422134021D07B685B68002B08DDB2
S11337507B685B889BB28022520113439AB27B68D8
S11337605A807B685B889BB21BB2002B03DAFB6830
S11337701800624B98477B685B889BB25E4A134093
S11337809AB27B685A8002235B42ABE07B685B8819
S11337909BB21A008023DB00134021D07B681B8876
S11337A01B125B001A0006231A401400FB68180061
S11337B0534B984702008023DB0113402343F1223B
S11337C01A43FB68110018004E4B98477B685B88CE
S11337D09BB24D4A13409AB27B685A80002381E021
S11337E07B685B68002B12D17B685B889BB21BB241
S11337F0002B03DAFB681800404B98477B685B8812
S11338009BB23D4A13409AB27B685A8011E07B68B0
S11338109B681A78FB68110018003C4B98477B683A
S11338209B685A1C7B689A607B685B685A1E7B683D
S11338305A60002356E0BB680222134051D07B68D3
S11338405B68002B46D01223FB181B88042213400C
S113385040D17B685B685A1E7B685A607B685B68F2
S1133860002B02D17B69002B06D07B685B68012B9F
S113387006D17B69002B03D0FB681800244B9847C2
S11338807B685B68002B15D17B685B889BB21BB29D
S1133890002B07DAFB6818001E4B9847FB681800DA
S11338A0164B98477B685B889BB2134A13409AB2C5
S11338B07B685A807B689C68621C7B689A60FB68A2
S11338C01800154B984703002370FB681800134B2E
S11338D0984706E0FB681800104B984702235B42A8
S11338E000E000231800BD4607B090BDC12C0000C5
S11338F0CD300000192B0000FFFEFFFF9D360000B5
S1133900C92F0000A12F0000FFFBFFFFED2F0000D7
S1133910212E0000F12D00001D3000002F2B00008F
S113392080B582B000AF78607B681800044B98477C
S113393003000933DBB21800BD4602B080BDC046A7
S11339400132000080B582B000AF786039607B68D6
S11339505A1E9341DBB2094A09491800094B98479A
S11339607B683A681A617B683A6811001800064B54
S1133970984703001800BD4602B080BD440500000E
S1133980684C0000F71C0000653C000080B584B062
S113399000AF78603960124BFB607B681B69BB60C9
S11339A0BB6818000F4B984703001A003B681A6065
S11339B0FB685A1EFA60002B02D105235B420AE021
S11339C03B681B680122134004D13B681B68022238
S11339D01340E5D000231800BD4604B080BDC046A6
S11339E0FFFF0000452B000090B587B000AF786062
S11339F07B681B697B617B683B617B6918003F4B7B
S1133A0098470300FB607B685A1E9341DBB23C4A33
S1133A103C4918003C4B98473B695B68012B07D134
S1133A20FB68002B04D07B691800384B984703E0EF
S1133A307B691800364B98473B691B881A00802322
S1133A40DB00134028D03B695B889BB21A0001233A
S1133A50134008D03B695B889BB28022D200134399
S1133A609AB23B695A803B691B885B001A00294B58
S1133A701A4014007B691800274B984702008023E2
S1133A80DB0113402343802212021A437B69110095
S1133A901800224B98471EE03B691B885B00FF22FD
S1133AA013403A69528892B2110001220A40511E11
S1133AB08A41D2B213431C007B691800164B984705
S1133AC002008023DB01134022001A437B691100AA
S1133AD01800124B98470823FA187B681100180045
S1133AE00F4B9847B9683A697B6918000D4B9847A2
S1133AF003001800BD4607B090BDC046C12C0000AD
S1133B00D3050000684C0000F71C0000212E0000C3
S1133B104D2E0000FE070000C92F0000A12F000059
S1133B208D390000BD36000090B587B000AF7860D5
S1133B3039607B681B693B617B685A1E9341DBB229
S1133B403E4A3F4918003F4B98477B681B695A1E01
S1133B509341DBB23C4A3A4918003A4B98473B68D8
S1133B605A1E9341D8B2C023DA00354B1900354BA5
S1133B7098477B685B889BB21A0080235B001340E4
S1133B8002D006235B4254E03B685B889BB28022F0
S1133B90520013439AB23B685A807B683A6813CA4E
S1133BA013C33B691800294B98477B681800284BBE
S1133BB0984703007B617B69002B31D07B685B886D
S1133BC09BB2244A13409AB27B685A807B6930E0E6
S1133BD00C23FA187B68110018001F4B9847030048
S1133BE07B617B69002B13D03B685B889BB21BB263
S1133BF0002B03DA3B691800184B98477B685B88F5
S1133C009BB2144A13409AB27B685A807B6910E0D5
S1133C10F9687A683B691800114B984703007B6187
S1133C207B685B889BB21A0080235B001340CFD172
S1133C307B691800BD4607B090BDC046FE05000074
S1133C40684C0000F71C0000FF050000C52D0000B3
S1133C50E9390000FFFEFFFF8D3900009D360000AA
S1133C60BD36000080B584B000AF786039603B6831
S1133C7018004F4B984703001A000F23FB181A70C3
S1133C803B68012118004B4B984703001A0001239D
S1133C905340DBB2002B25D00F23FB181A7846497A
S1133CA013005B009B18DB00CB1804331B681C2239
S1133CB01340BB603B6802211800404B9847031E29
S1133CC008D03B6818003E4B98473B680221180017
S1133CD03C4B9847BB6801221A433B68110018000B
S1133CE0394B98473B6801211800364B98470F23FE
S1133CF0FB181A78304913005B009B18DB00CB18C3
S1133D0004331A683B68110018002F4B98470F239F
S1133D10FB181A78284913005B009B18DB00CB18AA
S1133D2008331A683B6811001800284B98470F2382
S1133D30FB181A78204913005B009B18DB00CB1892
S1133D400C331A683B6811001800214B98470F2365
S1133D50FB181A78184913005B009B18DB00CB187A
S1133D6004331B681B0E9BB2032213409AB27B6878
S1133D709A817B689B8901229A429B415B42DAB219
S1133D803B6811001800134B98470F23FB181A784F
S1133D90094913005B009B18DB00CB1812331A8807
S1133DA07B68DA8100231800BD4604B080BDC0469C
S1133DB011360000BB2A000058000020E92C000046
S1133DC0952C00009D2A0000192D0000B12E000042
S1133DD0012F0000552F000080B500AF034B1B6876
S1133DE01800034B9847C046BD4680BD24010020FF
S1133DF02132000080B500AF034B1B681800034B51
S1133E009847C046BD4680BD2801002021320000ED
S1133E1080B500AF034B1B681800034B9847C0469E
S1133E20BD4680BD2C0100202132000080B582B047
S1133E3000AF78607B68DB68DB08012213405A1E00
S1133E409341DBB21800BD4602B080BD80B582B09C
S1133E5000AF78607B689B6902221A437B689A6191
S1133E60C046BD4602B080BD80B582B000AF786068
S1133E707B689B69022293431A007B689A61C0465F
S1133E80BD4602B080BD80B582B000AF78600A0044
S1133E90FB1C1A707B68FA1C12781A77C046BD4660
S1133EA002B080BD80B582B000AF78607B681B6AC9
S1133EB080221A437B681A62C046BD4602B080BDA8
S1133EC080B584B000AF78607B681B6AFB60FB68D8
S1133ED01B0C1B051B0DFB60FB681800BD4604B0E2
S1133EE080BD80B584B000AF78607B681B6AFB60DE
S1133EF0FB689B0FFB60FB681800BD4604B080BDE7
S1133F0080B582B000AF786039607B683A681A6225
S1133F10C046BD4602B080BD80B582B000AF204B24
S1133F207B607B6818001F4B98470200BB1C1A80FB
S1133F307B6818001C4B984703009A07BB1C1B881E
S1133F401B041900194B0B40134302221A437B68CC
S1133F5011001800164B98477B681800154B9847BA
S1133F60BB1C1B88DBB21F221340DAB27B68110032
S1133F701800114B9847C0467B6818000F4B9847B0
S1133F8003001A0001235340DBB2002BF4D17B68F9
S1133F9018000B4B9847C046BD4602B080BDC046D2
S1133FA000080040C13E0000E33E00000000FF0F97
S1133FB0013F00004D3E0000873E00002D3E000002
S1133FC0A53E000080B582B000AF054B7B607B68E6
S1133FD01800044B9847C046BD4602B080BDC04699
S1133FE000080040693E000080B582B000AF0200C6
S1133FF0FB1D1A70FB1D1B787F2B09D8064BFA1D7D
S1134000127811001F220A40012191400A001A600F
S1134010C046BD4602B080BD00E100E080B582B07C
S113402000AF0200FB1D1A70FB1D1B787F2B0ED8FE
S11340300949FB1D1B781A001F23134001229A40D3
S1134040130080228B50BFF34F8FBFF36F8FC04696
S1134050BD4602B080BDC04600E100E080B582B03C
S113406000AF0200FB1D1A70FB1D1B787F2B0AD8C2
S11340700749FB1D1B781A001F23134001229A4095
S1134080C0235B00CA50C046BD4602B080BDC046D6
S113409000E100E080B582B000AF78603960C046CE
S11340A07B689B683A681340FAD1C046BD4602B0AB
S11340B080BD80B582B000AF786039607B689B6852
S11340C03A6813405A1E9341DBB21800BD4602B051
S11340D080BD80B582B000AF78607B68DB6A012266
S11340E013405A1E9341DBB21800BD4602B080BD96
S11340F080B582B000AF78607B680122DA62C04686
S1134100BD4602B080BD80B582B000AF78600A00C1
S1134110FB1C1A707B68FA1C12785A71C046BD46A3
S113412002B080BD80B582B000AF78607B680122A8
S11341309A62C046BD4602B080BD000080B582B020
S113414000AF78607B681B68022293431A007B6887
S11341501A607B6803211800024B9847C046BD468D
S113416002B080BD9540000080B584B000AF786097
S113417039607B6803211800064B98477B681B68ED
S1134180FB60FB683A681340FB60FB681800BD469F
S113419004B080BD9540000080B582B000AF786067
S11341A039607B683A681A607B6803211800034B06
S11341B09847C046BD4602B080BDC0469540000049
S11341C080B582B000AF78600A00FB1C1A707B686F
S11341D0FA1C12789A77C046BD4602B080BD80B5FD
S11341E082B000AF786039607B683A681A62C04672
S11341F0BD4602B080BD000080B582B000AF7860DB
S113420039607B683A681A647B6880211800034B24
S11342109847C046BD4602B080BDC04695400000E8
S113422080B582B000AF786039607B68044A9342FD
S113423002D1044B3A681A60C046BD4602B080BD44
S1134240002000424001002080B584B000AF7860B7
S113425039603B6818003B4B98470300FB60FB68E0
S1134260002B02D10A235B4268E07B683A68DA607B
S11342703B6801211800344B984703001A000123BE
S11342805340DBB2002B14D03B68022118002F4BA3
S11342909847031E08D03B6818002D4B98473B688D
S11342A0022118002B4B98473B68012118002A4B28
S11342B098473B6801211800264B9847FB689A6889
S11342C03B6811001800244B9847FB681A7B3B6835
S11342D011001800214B9847FB685A7B3B6811007A
S11342E018001F4B9847FB681A693B6811001800B7
S11342F01C4B9847FB685A693B68110018001A4B1D
S113430098473B681800194B98477A683B68110036
S11343101800174B9847FB681B795BB21800154BC4
S11343209847FB681B795BB21800134B9847FB68EE
S11343301B795BB21800114B984700231800BD4647
S113434004B080BDE5430000B340000069410000B3
S11343503D410000954000009941000007410000E4
S1134360C1410000DF410000F94100002541000087
S1134370214200001D4000005D400000E93F0000B4
S113438080B500AF00231800BD4680BD80B584B061
S113439000AF78607B68DB68FB60FB681800084B43
S11343A09847031E08D0FB681800064B98477B68A3
S11343B01B687A6810009847C046BD4604B080BDAB
S11343C0D3400000F140000080B500AF034B1B68F0
S11343D01800034B9847C046BD4680BD40010020ED
S11343E08D43000080B584B000AF78600F23FB18C4
S11343F000221A701CE00F23FB181A7811491300CD
S11344009B009B18DB005A587B689A4209D10F2302
S1134410FB181A7813009B009B18DB00094A9B18B1
S11344200CE00F23FB181A780F23FB1801321A70C3
S11344300F23FB181B78002BDDD000231800BD468A
S113444004B080BD7000002080B582B000AF0200CF
S1134450FB1D1A70FB1D1B787F2B09D8064BFA1D18
S1134460127811001F220A40012191400A001A60AB
S1134470C046BD4602B080BD00E100E080B582B018
S113448000AF0200FB1D1A70FB1D1B787F2B0ED89A
S11344900949FB1D1B781A001F23134001229A406F
S11344A0130080228B50BFF34F8FBFF36F8FC04632
S11344B0BD4602B080BDC04600E100E080B582B0D8
S11344C000AF0200FB1D1A70FB1D1B787F2B0AD85E
S11344D00749FB1D1B781A001F23134001229A4031
S11344E0C0235B00CA50C046BD4602B080BDC04672
S11344F000E100E080B582B000AF7860C0467B6820
S1134500DB7B1B06DB0FDBB2002BF8D1C046BD46BC
S113451002B080BD80B582B000AF78607B689B7BC1
S1134520DBB21A00012313405A1E9341DBB2180078
S1134530BD4602B080BD80B582B000AF78607B68B4
S113454001229A73C046BD4602B080BD80B582B0D8
S113455000AF78607B6802229A73C046BD4602B001
S113456080BD80B582B000AF78607B685B7BDBB2D6
S11345705B08012213405A1E9341DBB21800BD466A
S113458002B080BD80B584B000AF78600A00BB1C67
S11345901A800E23FB187A6812881A800E23FB18DF
S11345A00E22BA18B91C128809880A401A800E23F0
S11345B0FB181B881800BD4604B080BD80B582B0CE
S11345C000AF78600A00BB1C1A807B68BA1C128892
S11345D01A80C046BD4602B080BD80B582B000AF2F
S11345E078600A00FB1C1A707B68FA1C12781A7235
S11345F0C046BD4602B080BD80B582B000AF7860D1
S11346000A00BB1C1A807B68BA1C12885A81C046F7
S1134610BD4602B080BD80B582B000AF78600800AE
S11346201100FB1C021C1A703B000A1C1A80FB1CA4
S11346301A787B680C32520039000988D152C0467E
S1134640BD4602B080BD80B584B000AFF8607A602A
S11346500B23FB180A1C1A700B23FB181A78FB682F
S1134660063292007968D150C046BD4604B080BD80
S113467090B585B000AF786039600F23FC183B68B3
S11346801800774B9847030023707B683A681A61D7
S11346903B681800734B98473B6802211800724B23
S11346A09847031E08D03B68002118006F4B9847B9
S11346B03B6818006B4B98473B68012118006B4B13
S11346C098473B681800674B98470F23FB18002254
S11346D09A56674913009B009B189B00CB18023322
S11346E01A883B6811001800604B98470F23FB1889
S11346F000229A565E4913009B009B189B00CB181E
S113470004331A783B68110018005A4B98470F235A
S1134710FB1800229A56564913009B009B189B00D5
S1134720CB1806331A883B6811001800524B98477F
S11347300F23FB1800229A564D4913009B009B1827
S11347409B00CB1802331B881A000C231340082B40
S113475022D10F23FB1800229A56454913009B00CF
S11347609B189B00CB180C331A683B680021180077
S1134770424B98470F23FB1800229A563C491300DA
S11347809B009B189B00CB1810331A683B680121CF
S113479018003A4B984737E00F23FB1800229A562B
S11347A0334913009B009B189B00CB1802331B88D2
S11347B01A000C23134024D10F23FB1800229A560D
S11347C02B4913009B009B189B00CB180C331B68D0
S11347D09AB23B6800211800294B98470F23FB1815
S11347E000229A56224913009B009B189B00CB1869
S11347F010331B689AB23B6801211800204B98477C
S113480002E001235B4227E07A683B68110018004C
S11348101C4B98473B6818001B4B98470300123306
S1134820DBB25BB21800194B98473B681800164B73
S1134830984703001233DBB25BB21800144B98475D
S11348403B681800104B984703001233DBB25BB28D
S11348501800104B984700231800BD4605B090BDC2
S113486071490000F544000085450000BD45000085
S113487098000020DB450000F94500004746000091
S113488017460000014A0000514900007D44000021
S1134890BD4400004944000080B500AF0023180067
S11348A0BD4680BD80B584B000AF78607B681B696D
S11348B0FB60FB681800144B9847031E0CD0FB6880
S11348C01800124B98477B681B68002B04D07B6848
S11348D01B687A6810009847FB6818000C4B9847CF
S11348E0031E0CD0FB6818000A4B98477B685B6872
S11348F0002B04D07B685B687A6810009847C04638
S1134900BD4604B080BDC0461545000037450000D3
S1134910634500004D45000080B500AF034B1B68A4
S11349201800034B9847C046BD4680BD4401002093
S1134930A548000080B500AF034B1B681800034B6B
S11349409847C046BD4680BD48010020A5480000E8
S113495080B582B000AF78607B68044A94466344B3
S11349609B0ADBB21800BD4602B080BD00D4FFBD77
S113497080B584B000AF78607B6818001C4B984702
S113498003001A000E23FB1803321A700F23FB18BE
S113499000221A7019E00F23FB181A781549130026
S11349A09B009B189B005B5C0E22BA1812789A42FB
S11349B004D10F23FB181B785BB215E00F23FB18FF
S11349C01A780F23FB1801321A700F23FB181B7877
S11349D0012BE0D96423FF331A00074B1900002090
S11349E0064B984701235B421800BD4604B080BDC6
S11349F05149000098000020984C0000F71C00006A
S1134A0080B582B000AF786039607B68084A934211
S1134A1002D1084B3A681A607B68074A934202D174
S1134A20064B3A681A60C046BD4602B080BDC04617
S1134A3000300042440100200034004248010020BC
S1134A4080B500AF024B98477920024B9847FEE7A8
S1134A5015010000594A000080B586B000AF02007D
S1134A60FB1D1A701423FA181D4B110018001D4B5E
S1134A70984780231A011A4B402118001A4B984773
S1134A800823FB1800221A700823FB1818225A70F6
S1134A907B690822B91802221800144B984708238E
S1134AA0FB18FE221A700823FB1879225A707B69BE
S1134AB00822B918022218000C4B98477B69082277
S1134AC0B91801221800094B98477B690822B918C4
S1134AD001221800064B9847C046BD4606B080BD6B
S1134AE0B802002011160000D11500003116000094
S1134AF08516000070B500260C4D0D4C641BA410E7
S1134B00A64209D1002600F0D1F80A4D0A4C641BD4
S1134B10A410A64205D170BDB300EB5898470136E6
S1134B20EEE7B300EB5898470136F2E7B84C0000C3
S1134B30B84C0000B84C0000BC4C00002E2E2F686E
S1134B40706C2F706F72742F68706C5F6770696F10
S1134B505F626173652E68002E2E2F68706C2F7053
S1134B606D2F68706C5F706D5F626173652E680095
S1134B702E2E2F68616C2F7372632F68616C5F61D6
S1134B8064635F6173796E632E6300002E2E2F6859
S1134B90616C2F7372632F68616C5F6932635F6D40
S1134BA05F73796E632E63002E2E2F68616C2F73F2
S1134BB072632F68616C5F696F2E63002E2E2F68FD
S1134BC0616C2F7372632F68616C5F70776D2E63F5
S1134BD0000000002E2E2F68616C2F7372632F6803
S1134BE0616C5F74696D65722E6300002E2E2F68F0
S1134BF0616C2F7372632F68616C5F75736172747B
S1134C005F6173796E632E63000000002E2E2F689F
S1134C10616C2F7574696C732F7372632F7574696B
S1134C206C735F6C6973742E630000002E2E2F6802
S1134C30616C2F7574696C732F7372632F7574694B
S1134C406C735F72696E676275666665722E630067
S1134C502E2E2F68706C2F6164632F68706C5F61F7
S1134C6064632E63000000002E2E2F68706C2F7377
S1134C706572636F6D2F68706C5F736572636F6DBF
S1134C802E6300000000000000000000000000008F
S1134C9000000000000000002E2E2F68706C2F749E
S1134CA0632F68706C5F74632E630000F8B5C046B0
S1134CB0F8BC08BC9E467047DD000000F8B5C0464D
S10F4CC0F8BC08BC9E467047B50000001C
S1134CCC0002000000000000000000001A180000A0
S1134CDC00000000000000000000000000000000C4
S1134CEC040011400000030082E2000000000000F8
S1134CFC04000000040011400000030004C500007F
S1134D0C0000000005000000040010400000030037
S1134D1C15FB00000000000002000000140020003D
S1134D2C00010000220000000000D70000127A00ED
S1134D3C002000420F0000000000000000000000F2
S1134D4C0000000020030000000000000000000030
S1134D5C00000000000000000400600300000000DC
S1134D6C3200000000000000000000000500600696
S1134D7C000000003200000070020000D4010000AA
S9030000FC
